:020000040800F2
:1000000000000220A1070008F1070008F10700081E
:10001000F1070008F1070008F107000800000000E0
:10002000000000000000000000000000F1070008D0
:10003000F107000800000000F1070008F1070008C0
:10004000F1070008F1070008F1070008F1070008B0
:10005000F1070008F1070008F1070008F1070008A0
:10006000F1070008F1070008F1070008F107000890
:10007000F1070008F1070008F1070008F107000880
:10008000F1070008F1070008F10700080000000070
:10009000000000000000000000000000F107000860
:1000A000F1070008F1070008F1070008F107000850
:1000B000F1070008F1070008F1070008F107000840
:1000C000F1070008F1070008F1070008F107000830
:1000D000F1070008E9020008F1070008000000002D
:1000E000F1070008F1070008F10700080000000010
:1000F000000000000000000000000000F107000800
:1001000000000000F1070008F1070008F1070008EF
:1001100000000000000000000000000000000000DF
:10012000F1070008F1070008F1070008F1070008CF
:10013000F1070008000000000000000000000000BF
:10014000000000000000000000000000F1070008AF
:10015000F1070008F1070008F1070008F10700089F
:10016000F1070008F107000800000000000000008F
:10017000000000000000000000000000000000007F
:1001800000000000F107000800000000000000006F
:08019000F1070008F107000867
:1001980010B5054C237833B9044B13B10448AFF3B9
:1001A80000800123237010BD9C0400200000000083
:1001B800E00F000808B5034B1BB103490348AFF330
:1001C800008008BD00000000A0040020E00F000827
:1001D80010B586B00121084600F0F6FC0121102078
:1001E80000F00EFD0023049305934FF4C0630493BD
:1001F80002238DF814308DF81530134C04A92046CD
:1002080000F00CFD07220921204600F06BFD0722B3
:100218000A21204600F066FD0C4BEC460FCB8CE81B
:100228000F00A4F570446146204600F075FD0121D9
:10023800204600F0D7FD012240F22551204600F06B
:10024800E7FD06B010BD00BF00000240F80F00082F
:1002580000B583B04FF4E06000F03CFB044B1B6931
:10026800019301A800F040FB03B05DF804FB00BF58
:10027800F80F000810B582B001220023CDE9002351
:10028800FFF7A6FFFFF7E4FF00F0E8F9DDE9002338
:1002980013431DD0104B1B78002BF7D000F0FCF94E
:1002A80000F02CFA00240CE040210C4800F0CBFDB3
:1002B8000028F9D000F056FA81B2084800F0A0FDF5
:1002C8000134B4F5163FEFDB034B00221A70DDE76B
:1002D800002002B010BD00BFB8040020001001408B
:1002E80010B540F225510A4800F0B4FD00B910BD20
:1002F800074C40F22551204600F0D1FD204600F081
:1003080083FD5528F3D1034B01221A70EFE700BF94
:1003180000100140B804002008B54FF40031084827
:1003280000F0DBFB0028F8D10121054800F098FB1C
:100338000449034800F0BEFB0028F9D008BD00BFFF
:10034800005400400100030010B50C460A4601465F
:10035800094800F0A1FB34B90849074800F0AAFB96
:100368000028F9D010BD012CFCD10549024800F045
:10037800A1FB0028F9D0F5E70054004082000700EF
:100388000200030008B50146044800F08EFB04494A
:10039800024800F08FFB0028F9D008BD0054004047
:1003A8008400070008B50121044800F067FB0449F0
:1003B800024800F092FB0028F9D108BD0054004023
:1003C8001000001008B50549054800F073FB002827
:1003D800F9D0034800F06BFB08BD00BF40000300E4
:1003E8000054004000B583B001220023CDE900236A
:1003F80003E00133084A9342FBDDDDE900231343A0
:1004080006D04FF40051054800F068FC0023F1E7DE
:1004180003B05DF804FB00BF3F420F000008024034
:1004280010B586B001214FF4001000F0DBFB01216C
:10043800022000F0C9FB144C04220621204600F0DB
:1004480051FC04220721204600F04CFC0F4A04AB63
:1004580092E8030083E803001946204600F0DEFB1B
:1004680000230093019302930393684600F0DCFA9B
:10047800A4F5D8346946204600F068FA01212046E0
:1004880000F0E0FA06B010BD000402404810000871
:100498002DE9F04383B00121062000F095FB4FF4CD
:1004A8008049CDF8009000248DF804408DF806406E
:1004B8008DF807408DF80540244E6946304600F017
:1004C800ADFB40F23F330093214D6946284600F0CA
:1004D800A5FB4FF40058CDF8008001278DF8047073
:1004E8008DF806408DF8074003238DF805306946DE
:1004F800304600F093FB4FF4744300936946284656
:1005080000F08CFB3A464146304600F0E1FB2246BB
:100518004146284600F0DCFB22464FF4805128462D
:1005280000F0D6FB3A464946284600F0D1FB3A4649
:100538004FF40041284600F0CBFB22464FF480617F
:10054800304600F0C5FB03B0BDE8F0830008024068
:100558000004024008B500224FF480510A4800F018
:10056800B7FB002300E00133B3F57A7FFBDB012200
:100578004FF48051044800F0ABFB002300E0013346
:10058800B3F57A7FFBDB08BD0004024038B50546A9
:100598000C46FFF7C1FE00214220FFF7D5FE284692
:1005A800FFF7F0FE2046FFF7EDFEFFF7FBFE38BD34
:1005B80010B50446FFF7B0FE00214220FFF7C4FE45
:1005C8002046FFF7DFFEFFF7EDFEFFF7A5FE01214E
:1005D8004320FFF7B9FEFFF7F5FE0446FFF7E2FEFA
:1005E800204610BD70B50A20FFF7E2FF04460B2035
:1005F800FFF7DEFF05461C20FFF7DAFF06461D2041
:10060800FFF7D6FF762C01D0002070BD732D01D0E6
:100618000020FAE77F2E01D00020F6E7A22801D0BB
:100628000020F2E70120F0E7F8B505460F46002460
:1006380000E00134BC4210D205EB4406717815F88D
:100648001400FFF7A3FF15F81400FFF7B1FF737844
:100658008343EED0FFF7C6FEEBE7F8BD08B5FFF71A
:10066800DFFEFFF715FFFFF775FFFFF7BBFF28B1A8
:1006780080211220FFF78AFF002303E0FFF7B2FE74
:10068800F6E70133B3F5FA5FFBDB2A210148FFF7F0
:10069800CBFF08BD0800002008B54FF4804114487E
:1006A80000F00FFB0028F8D14FF48041104800F00B
:1006B80008FB0028F8D001224FF400510D4800F043
:1006C80007FB4FF480410A4800F0FBFA0028F8D1F4
:1006D80000224FF4005100F1804000F5013000F095
:1006E800F7FA002300E00133034A9342FBDD08BD1B
:1006F80000080240000402403F420F0010B5184CA9
:1007080000224FF48041204600F0E2FA01224FF423
:100718008061204600F0DCFA00224FF48061204618
:1007280000F0D6FA01224FF48061204600F0D0FA9A
:10073800002300E00133632BFCDD01224FF48041EC
:10074800074800F0C5FA002300E00133632BFCDD05
:1007580000224FF48061024800F0BAFA10BD00BFD1
:100768000004024038B50B4D01224FF48061284641
:1007780000F0AEFA2C69A40804F0C0042B6903F059
:100788003F031C4300224FF48061284600F0A0FA82
:10079800204638BD00040240DFF834D0002103E0D1
:1007A8000C4B5B58435004310B480C4B42189A428F
:1007B800F6D30B4A02E0002342F8043B094B9A4265
:1007C800F9D300F065F800F073FBFFF753FD7047AD
:1007D8000000022060100008000000209C04002097
:1007E8009C040020C0040020FEE7000082B0002323
:1007F80001930093234A136843F480331360214B19
:100808001B6803F400330093019B01330193009BA1
:100818001BB9019BB3F5A04FF1D11A4B1B6813F418
:10082800003F06D001230093009B012B04D002B0A7
:10083800704700230093F7E7124B1A6C42F080527E
:100848001A6411490A6822F440420A609A689A6058
:100858009A689A609A6842F480529A600B4A40F209
:10086800026111609A6822F003029A609A6842F065
:1008780001029A60034B9B6803F00C03042BF9D127
:10088800D5E700BF0038024000700040003C02403D
:1008980008B50D4B1A6842F001021A6000219960F0
:1008A8001A6822F0847222F480321A60074A5A6069
:1008B8001A6822F480221A60D960FFF797FF044B68
:1008C8004FF000629A6008BD0038024010300024E2
:1008D80000ED00E040F0BF6040F40030014BD8600C
:1008E800704700BF00ED00E0C378FBB1154BDB6833
:1008F800DB43C3F30222C2F10401C9B20F2313413F
:1009080042788A40D2B281780B4013431B01DBB294
:1009180002780D490A4482F80033037803F01F0077
:100928005B090122824041F823207047037803F0D5
:100938001F015B0901228A402033034941F8232023
:10094800704700BF00ED00E000E100E070B584B042
:1009580004460D468688B6B226F03F06B6B268460B
:1009680000F0D8F802982D4BA3FB0023990C46EA17
:100978009346A680228892B222F0010292B2228087
:100988002B68274A934222D88C465B00B0FBF3F3CE
:100998009BB2032B00D804230CF1010CA4F820C04F
:1009A800A38323889BB243F00103238023889BB24F
:1009B80023F4816323F00203AA8869890A43134355
:1009C8002380AB892A891343238104B070BDEE8844
:1009D8004BF6FF7296421BD003EB830303EB8303B2
:1009E800B0FBF3F39BB243F48043C3F30B020AB9A1
:1009F80043F0010343F400434FF4967201FB02F203
:100A0800084981FB02129211013292B22284C7E78F
:100A180003EB4303B0FBF3F39BB2E6E783DE1B4330
:100A2800A0860100D34D621041F288330360002391
:100A380083804BF6FF72C280038143814FF4804369
:100A48008381704729B103889BB243F00103038077
:100A5800704703889BB223F001039BB20380704761
:100A680029B103889BB243F48073038070470388DD
:100A78009BB223F480739BB20380704729B103882B
:100A88009BB243F400730380704703889BB223F43E
:100A980000739BB20380704722B141F0010189B213
:100AA8000182704701F0FE01F9E701827047008A70
:100AB800C0B27047838A9BB233F010020BD0028B0E
:100AC80043EA024323F07F4331EA030301D00020C5
:100AD8007047012070470020704782B000230193BF
:100AE800009300900B0F019321F07F41019B4BB1C4
:100AF800009B14330093009B1B680B4207D0012016
:100B080002B07047090C009B18330093F3E70020EC
:100B1800F6E7000010B4284B9B6803F00C03042B85
:100B280022D0082B23D013B1244B036001E0234BC0
:100B38000360214CA368C3F303132149CB5CDAB2E9
:100B48000368D3404360A268C2F382228A5CD2B2AF
:100B580023FA02F28260A268C2F342328A5CD2B2FD
:100B6800D340C36010BC7047164B0360E1E7124BDB
:100B780059685A6802F03F0211F4800F12D0114BE5
:100B8800B3FBF2F30C4A5268C2F3881202FB03F378
:100B9800094A5268C2F3014201325200B3FBF2F330
:100BA8000360C6E7054BB3FBF2F3034A5268C2F38E
:100BB800881202FB03F3EBE7003802400024F4003C
:100BC8005C00002040787D0121B1054A136B184371
:100BD80010637047024A136B23EA000010637047E2
:100BE8000038024021B1054A136C1843106470475D
:100BF800024A136C23EA0000106470470038024070
:100C080021B1054A536C184350647047024A536C2B
:100C180023EA0000506470470038024000230F2B7D
:100C28004ED830B516E0C2681FFA83FE4FEA4E046C
:100C38004FF0030E0EFA04FE22EA0E02C260C268EA
:100C480091F807E00EFA0CFC42EA0C02C26001338C
:100C58000F2B34D801229A400C68A243F7D10468BC
:100C68004FEA430C032202FA0CF26FEA020E24EA5E
:100C78000202026002680C7904FA0CF42243026052
:100C88000A79013AD2B2012ACDD882680EEA020264
:100C9800826082684C7904FA0CF4224382604468CA
:100CA8009DB24FF0010E0EFA05FE24EA0E044460D0
:100CB80044688A79AA4092B222434260B3E730BDC1
:100CC80070470369194201D001207047002070471E
:100CD8000AB18161704709048161704743695940CD
:100CE8004161704700B501F007039B0002FA03FC5D
:100CF800C908083150F821204FF00F0E0EFA03F3FF
:100D080022EA030340F8213050F8212042EA0C027D
:100D180040F821205DF804FB30B585B004460D4647
:100D2800038A9BB223F44053CA88134303828389FE
:100D38009BB223F4B05323F00C03898828896A896D
:100D480001430A431343A381A38A9BB223F440734C
:100D5800AA891343A3826846FFF7DCFE1F4B9C4217
:100D680005D003F580639C4201D0029B00E0039B01
:100D7800A28912F4004F1FD103EB830303EB830313
:100D88002A689200B3FBF2F3154AA2FB0312520938
:100D98001101642002FB1033A28912F4004F14D110
:100DA8001B0132330E4AA2FB0323C3F343130B4345
:100DB8009BB2238105B030BD03EB830303EB8303B0
:100DC8002A685200B3FBF2F3DEE7DB003233044A51
:100DD800A2FB0323C3F342130B43E9E700100140CE
:100DE8001F85EB5129B183899BB243F4005383815A
:100DF800704783899BB223F400539BB28381704769
:100E0800C1F30801818070478088C0F308007047EB
:100E1800C1F3421C01F01F01012303FA01F19C45B3
:100E280008D0BCF1020F07D014303AB10368194357
:100E3800016070470C30F8E71030F6E7036823EAE2
:100E48000101016070470388194201D001207047F1
:100E580000207047C1F3421201F01F0C012303FA6E
:100E68000CF3012A0FD0022A11D0828A92B21340C1
:100E7800090A012202FA01F1028892B20A4053B12A
:100E88005AB900207047828992B21340F0E7028A6B
:100E980092B21340ECE70020704701207047090A1E
:100EA80001238B409BB2DB439BB203807047000059
:100EB80070B50D4E0D4D761BB61006D0002455F8B2
:100EC800043B01349847A642F9D1094E094D761BD7
:100ED80000F082F8B61006D0002455F8043B01341F
:100EE8009847A642F9D170BD541000085410000864
:100EF8005C10000854100008024B13B1024800F0BF
:100F080005B8704700000000210F000800230146C3
:100F18001A46184600F01AB838B5084B084D5B1B3E
:100F28009C1007D0043B1D44013C55F804399847F0
:100F3800002CF9D1BDE8384000F054B86010000822
:100F48005C100008704700BF704700BF2DE9F047EC
:100F5800DFF87CA00646DAF8000098460F4691466E
:100F6800FFF7F0FF1B4B1B68D3F8484124B36568B3
:100F78001F2D26DC5EB96B1C0235DAF800006360B1
:100F880044F82570FFF7E0FF0020BDE8F08704EB88
:100F980085010123C1F88890D4F88821AB401A4311
:100FA800022EC4F88821C1F80881E4D1D4F88C2134
:100FB8001343C4F88C31DEE703F5A674C3F848413F
:100FC800D5E7DAF80000FFF7BFFF4FF0FF30DCE7A6
:100FD8009804002050100008F8B500BFF8BC08BC01
:100FE8009E467047F8B500BFF8BC08BC9E467047DF
:100FF80000C201000000000000000C00000000001A
:101008002501030100000008041001400000002031
:10101800400000000700000000000000000400007D
:1010280000000000000000000001000000000200B5
:1010380004000000000000000000000000000000A4
:0C104800C0000000020201007000002047
:08105400010F0008BD010008B6
:04105C0099010008EE
:1010600062756666657230000C0111803B0A3A04B5
:101070003A0412048C0040D01716180432241902C6
:101080001A7A030A15020C041E3F3E19721173F1FD
:101090004F80508051005222535E54805640589EDB
:1010A00059885A885B445C675D495E0E69006A40F6
:1010B0006B0A6C0A6D556E116F9FB08400000000C2
:1010C00001020304010203040607080900000000EE
:1010D000000000005C030020C40300202C0400205A
:1010E0000000000000000000000000000000000000
:1010F00000000000000000000000000000000000F0
:1011000000000000000000000000000000000000DF
:1011100000000000000000000000000000000000CF
:1011200000000000000000000000000000000000BF
:1011300000000000000000000000000000000000AF
:10114000000000000000000000000000000000009F
:10115000000000000000000000000000000000008F
:10116000000000000000000000000000000000007F
:10117000000000000000000001000000000000006E
:101180000E33CDAB34126DE6ECDE05000B00000033
:10119000000000000000000000000000000000004F
:1011A000000000000000000000000000000000003F
:1011B000000000000000000000000000000000002F
:1011C000000000000000000000000000000000001F
:0C14F0000000000000000000BC04002010
:04000005080007A147
:00000001FF
